:020000040800F2
:10000000005000201D07000808B540F625430020D9
:10001000C0F60003984708BD002010B52A4B98474A
:10002000692827D02C282ED06A2836D06C283ED0BC
:100030006B2840D07128254B08D0612811D0B3F926
:10004000002000202249234B984710BD19880A310F
:1000500089B20AB2642AD8BF1980F2DD64221A80FC
:10006000EFE719880AB2092AC2BFA1F10A0292B2C7
:100070001A80E6E7154C184BB4F900000146984782
:10008000B4F90020DDE7114C134B2088404200B248
:1000900001469847B4F90020D3E70C4C2188484228
:1000A00000B209B20C4B9847B4F90020C9E7074CDD
:1000B00020884142F4E70020074B01469847034B54
:1000C000B3F90020BDE700BF810A0008000200204C
:1000D000FC2B0008010B00087512000800B50B4B43
:1000E00083B0984700240A4B98470A4D4FF47A7121
:1000F00002222046084B0094A8472046074B984709
:100100000748084B9847084CA047FDE7CD07000873
:100110002D0100087D0E0008090000089D0E000852
:10012000042C00082505000819000008704700BFCE
:1001300038B5094B05461B7853B1084A084914687D
:100140000868631C0555096813600022CA5438BD4D
:10015000044B984738BD00BF08020020040200206D
:10016000EC020020310B000838B50446007828B1B5
:10017000034DA84714F8010F0028FAD138BD00BF7D
:100180003101000830B4D0B10378D3B100230B6043
:1001900002789AB1A2F13004E2B2092A02D912E03F
:1001A000092D10D803EB830304EB43030B6010F815
:1001B000012FA2F13004E5B2002AF1D1012030BCB8
:1001C00070471846FBE70020F9E700BF2DE9F0472C
:1001D000037884B00026824689460096002B7FD0A3
:1001E000642B7DD0564F3446B046A3F13102082A25
:1001F00072D81AF804200AEB0405A2F13003092B87
:1002000001A84FF0000308D8C25415F8012F01349B
:10021000A2F1300101330929F6D904AAD31869469D
:1002200003F80C8C013CB84701341AF804300BB1C8
:10023000642BDAD10098002852D0092878DD0920F3
:100240000090062207210A2303EB830301395B0098
:100250004C1CF9D199FBF3F10A24022803FB1199F4
:1002600005D004EB8404013A6400531CF9D146F232
:100270006765344F4FF00108C6F266650DE0B8F1CE
:10028000000F1CD0302006B92020B84785FB04237E
:10029000E417C4EBA304002C1BDD99FBF4F3D8B2E4
:1002A0003030B4F1010EDEF1000252EB0E02002BF1
:1002B00018BF42F0010204FB1399002ADFD0B847AF
:1002C00085FB0423E417C4EBA304002C4FF00008C3
:1002D000E3DC04B0BDE8F087302B08BF0126A3E7BC
:1002E0004FF44A4446F267670A25C3F69A3401215F
:1002F000144EC6F2666708E0B047002187FB04236E
:10030000E417013DC4EBA304E3D0601E424299FB15
:10031000F4F34241002B18BF42F00102D8B2303052
:1003200004FB1399002AE7D10029E5D00121E5E774
:10033000431E811EC21E002B85D10A238AE700BFFF
:1003400085010008310100082DE9F043037887B0EA
:100350000026814601910296002B00F08580782BC3
:1003600000F082806D4F3446B046A3F13102082A76
:1003700076D819F8042009EB0401A2F13003092B07
:1003800003A84FF0000308D8C25411F8012F01341C
:10039000A2F130050133092DF6D906AAD31802A916
:1003A00003F80C8C013CB847013419F804300BB148
:1003B000782BDAD1019A029B12BA0192002B56D007
:1003C000DA0758BF4FF0010821D5DB43083303EBB0
:1003D000D37306AA02EB630313F8143C13F00F0364
:1003E0000BD0092B98BF03F1300001D903F137007E
:1003F0004B4FB8474FF0000806E0002E7CD030206D
:10040000474FB8474FF00108029B013B0293C3F1ED
:10041000080303EBD3735C10032C1EDC01AB404FCD
:100420001C190DF1080914F8013B03F00F051B0915
:100430004DD0092B88BF03F1370069D9B8474FF079
:100440000008002D4BD0092D88BF05F1370059D980
:10045000B8474FF000084C45E5D107B0BDE8F08340
:10046000302B08BF01269FE7019B1BBA01930DF1BA
:10047000030616F8013F0122002403F00F051B09B3
:10048000274F1ED0092B88BF03F137003DD9B8474D
:1004900000222B1C18BF0123032C08BF43F00103CB
:1004A00093B1092D88BF05F1370034D9B847002230
:1004B0000134042CD1D016F8013F03F00F051B09BD
:1004C000E0D112B30122E4E72AB30122F0E7B8F148
:1004D000000F1DD056B13020B847002DB3D1B8F170
:1004E000000F0FD02EB13020B847B4E72020B84716
:1004F000A7E72020B847AEE72020094FB8474FF0C4
:10050000010881E705F13000A2E703F13000BEE702
:1005100003F1300092E705F13000C7E785010008DC
:10052000310100080FB42DE9F04784B00DF1300A15
:10053000344B00225AF8044B334D344FDFF8D4804B
:10054000334E1A700DF10409207850B325282DD1AF
:100550008DF80400621C0121944612F8013BA3F1BE
:100560006304782B18BF012C104622D9732B20D09E
:10057000252B1ED001F8093001310A29ECD19CF855
:100580000130441C642B1FD025D8252B36D0632B7B
:10059000DAD19AF80000A84720780AF1040A002866
:1005A000D4D104B0BDE8F04704B07047A847013487
:1005B000CAE704AA60465118441C0022642B01F8C3
:1005C0000C3C01F80B2CDFD1DAF8001048460AF198
:1005D000040AB847B8E7732B08D0782BB4D1DAF8FF
:1005E000001048460AF1040AB047ADE7DAF8000007
:1005F0000AF1040A0028A7D0C047A5E71846A84773
:10060000A2E700BF0802002031010008CD01000868
:1006100049030008690100080EB42DE9F047384B82
:1006200001221A70374B85B018600DF1340A364B31
:1006300000225AF8044B354D354FDFF8DC80354E3B
:100640001A600DF10409207850B325282DD18DF8BA
:100650000400621C0121944612F8013BA3F16304DB
:10066000782B18BF012C104622D9732B20D0252BB4
:100670001ED001F8093001310A29ECD19CF8013073
:10068000441C642B1FD025D8252B36D0632BDAD100
:100690009AF80000A84720780AF1040A0028D4D16B
:1006A00005B0BDE8F04703B07047A8470134CAE77A
:1006B00004AA60465118441C0022642B01F80C3C2B
:1006C00001F80B2CDFD1DAF8001048460AF1040AD1
:1006D000B847B8E7732B08D0782BB4D1DAF80010FC
:1006E00048460AF1040AB047ADE7DAF800000AF11B
:1006F000040A0028A7D0C047A5E71846A847A2E7E4
:1007000008020020EC020020040200203101000851
:10071000CD0100084903000869010008684620F07F
:1007200007018D4619B52349234B99420BD2C84383
:10073000C01820F00300214C043000231A595A50ED
:1007400004338342FAD11F481F494FF00002884208
:10075000B8BF40F8042BFFF6FAAF4FF48054C4F250
:1007600002042268002342F48032226040F2FF40FB
:1007700021680133834281F400318CBF00220122C1
:1007800012EA5142F4D14FF40053C4F202031A6842
:1007900042F010021A601A6822F003021A601A6806
:1007A00042F002021A60064B9847BDE819408546A0
:1007B000704700BF00000020E4000020C82C0008A3
:1007C000DD000008000200204C100020F8B540F6C3
:1007D0004D33C0F60003984740F63553C0F600038A
:1007E000984740F604064FF4006E43F2B3474FF4C7
:1007F000406540F6044441F2040144F244404FF0A5
:100800003332C4F2010EC4F20101C3F24430C4F227
:100810000106C3F23337C4F20105C4F2010440F605
:100820003523CEF80020C0F6000337602A6022602E
:100830000860984740F68553C0F60003984740F695
:10084000DD63C0F60003984740F6B163C0F60003CD
:10085000984740F6E133C0F60003984741F2B103F0
:10086000C0F600039847F8BD00B544F20443C4F253
:1008700000031B6883B002A901F8013D0120054B6C
:100880009847054B5B6913B19DF80700984703B083
:1008900000BD00BF810C0008F002002000B543F647
:1008A0000403C4F201031B6883B002A901F8013DEF
:1008B0000020054B9847054B9B6813B19DF8070036
:1008C000984703B000BD00BF810C0008F002002073
:1008D0004FF46052C4F2010213681B06FCD543F6C4
:1008E0000403C4F201031860704700BF2DE9F04112
:1008F00041F21806C4F20206356840F2F023C2F253
:10090000000343F60C0458609960C4F2010445F4F6
:1009100080480C2343F6100C43F6140E43F60807E8
:10092000C6F8008000222360C4F2010CC4F2010E5C
:1009300040F27123C4F201074EF20415CCF80020F6
:10094000CEF20005CEF800203B602B68252043F056
:1009500020032B60216840F6495341F020012160BB
:1009600040F69D01C0F60003C0F6000198472368D9
:1009700043F400532360BDE8F08100BFF8B541F2B5
:100980001C04C4F20204256840F2F022C2F2000204
:1009900045F400354FF4006310615161C4F2010366
:1009A00025601A6844F20C4422F470621A601A68D6
:1009B000C4F2000442F440721A601A6844F210460D
:1009C00042F400621A601A6844F2144522F470423C
:1009D0001A601A6844F208401A601F68002247F43F
:1009E00080471F600C232360C4F200004FF49C7307
:1009F000C4F20006C4F200054EF204113260CEF2D9
:100A000000012A6003600B68262043F040030B605E
:100A1000216840F6495341F02001216040F6690108
:100A2000C0F60003C0F600019847236843F4005362
:100A30002360F8BD40F6394310B5C0F6000398476F
:100A400040F2F0230024C2F2000340F6ED022146FA
:100A50005C609C601C615C61DC611C629C62DC62AD
:100A60005C639C634FF4E130C0F60002904740F6AF
:100A70007D134FF4E1302146C0F60003984710BDC6
:100A800030B5002383B0084D04468DF8073020466A
:100A9000A8470028FBD020460DF10701034B9847DB
:100AA0009DF8070003B030BD550C0008DD0C0008B0
:100AB00008B518B90846094B984708BD012800D069
:100AC00008BD4FF48842C4F2000213681806FCD532
:100AD00044F20443C4F20003196008BDD1080008C1
:100AE00070B50C460978054631B1044E2846B0472A
:100AF00014F8011F0029F9D170BD00BFB10A000828
:100B00000EB410B540F21963B3B004463599684687
:100B1000C0F60003984740F6E12320466946C0F638
:100B20000003984733B0BDE8104003B0704700BFE2
:100B30000A2838B5044603D0034DE0B2A84738BDB3
:100B40000D20014DA847F8E7D108000841F2040341
:100B5000C4F202031A684FF4805122F47C1222F08E
:100B6000F0021A601A68C4F2020142F4E8121A6034
:100B70000B680A4643F080730B6013689B01FCD539
:100B800041F20403C4F2020319681A4621F003017A
:100B90001960196841F002011960196821F4800197
:100BA0001960196821F4E0611960196841F48061E5
:100BB0001960196821F46051196019681960136887
:100BC00003F00C03082BFAD141F21803C4F202031C
:100BD0001A6842F4804242F01D021A60704700BF5A
:100BE0000422C4F2010211684FF4406321F0E06175
:100BF00011601168C4F2010341F08061116019684D
:100C000040F60C4221F4704119601968C4F20102E7
:100C100041F44051196019681960136843F00803E2
:100C20001360704738B940F60C43C4F201031A68E8
:100C300082F008021A6070470023044804491A46EB
:100C40001A525A5202330E2BFAD170472404002054
:100C50003404002040F2344240F22443C2F2000245
:100C6000C2F2000333F9103032F91020D21A2032C8
:100C7000D317DB0ED21802F01F00C01A704700BF56
:100C800070B4134C134B34F8106033F9102035B2A4
:100C9000AA1A2032D317DB0ED21802F01F02D31A81
:100CA0001F2B12D0013636B2F317DB0E00EB4012C9
:100CB000F6180978551906F01F06074AF31A24F8A2
:100CC00010305155012070BC70470020FBE700BF79
:100CD00034040020240400202C03002070B4124CA3
:100CE000124A34F81060034632F9100035B2401B46
:100CF0002030C217D20E801800F01F00801A10D0CA
:100D0000013636B2F21703EB4310D20E45190848EC
:100D1000B618405D06F01F06B21A0870012024F8CC
:100D2000132070BC704700BF24040020340400204E
:100D30002C03002040F200634EF60852C2F200037A
:100D4000CEF200021360704740F200631030C2F22E
:100D5000000343F82010704740F200638008C2F29D
:100D6000000343F82010704708B540F66D6140F667
:100D700059533C20C0F600010022C0F600039847FA
:100D800008BD00BF10B51B4C2378012B30D01A4B87
:100D9000002203F1A00103F8082C23F8062C23F805
:100DA000042C43F8102B8B42F5D1144B98474EF28C
:100DB000140141F63F10CEF200014EF21802C0F2CB
:100DC00001000860CEF200024EF210030021CEF2C4
:100DD000000311601A6842F004021A601A6842F0B7
:100DE00002021A601A6842F001021A60012323709D
:100DF00010BD00BFB002002014020020690D0008E1
:100E0000174A38B51168174B013111601A8892B230
:100E10001AB11A88013A92B21A80134C04F1A00553
:100E200002E01034AC421AD014F8083C012BF8D17F
:100E300034F8063C013B9BB224F8063C002BF0D171
:100E400014F8072C012A34F8042C08BF04F8083CD5
:100E500024F8062C236810349847AC42E4D138BDFE
:100E6000AC020020B20200201402002008B540F6B7
:100E70000163C0F60003984708BD00BF10B440F2FC
:100E80000C24C2F2000404EB00108360019B42704A
:100E9000C3604180818010BC704700BF092803D81F
:100EA000024B000101221A54704700BF0C020020BF
:100EB00008B541F60133C0F60003984741F62133E7
:100EC000C0F60003984741F66533C0F60003984723
:100ED00042F2C563C0F60003984708BD4FF40063B3
:100EE000C4F20103196841F2040221F07041196053
:100EF0001968C4F202021960186841F218011860FA
:100F00001368C4F2020143F400431360136842F211
:100F1000044023F4804313600A6842F2084342F419
:100F200000720A60C4F201000022C4F201030260F0
:100F30004FF400021A601A68194642F001021A6062
:100F40001A6842F008021A600A6842F2084312075F
:100F5000C4F20103F8D419681A4641F0040119607B
:100F6000136813F00403FBD142F22C42C4F20102D5
:100F70001360136843F4801313607047032811D87B
:100F8000DFE800F02E20110240F60C43C4F201030A
:100F90001A6800294AD042F400521A601A6822F4F2
:100FA00080421A60704740F60C43C4F201031A688D
:100FB000002933D142F400621A601A6822F4805288
:100FC0001A60704740F60C43C4F201031A68E9B98D
:100FD00022F004021A601A6842F480621A607047B4
:100FE00040F60C43C4F201031A6839B922F0010239
:100FF0001A601A6842F002021A60704742F0010259
:101000001A601A6822F002021A60704742F0040265
:101010001A601A6822F480621A60704722F4006233
:101020001A601A6842F480521A60704722F4005223
:101030001A601A6842F480421A60704703280FD879
:10104000DFE800F0291C0F0240F60C43C4F2010354
:101050001A6822F400521A601A6822F480421A6058
:10106000704740F60C43C4F201031A6822F4006290
:101070001A601A6822F480521A60704740F60C43D6
:10108000C4F201031A6822F004021A601A6822F4FA
:1010900080621A60704740F60C43C4F201031A687C
:1010A00022F001021A601A6822F002021A607047E8
:1010B0004FF44062C4F2010211682DE9F04721F0BB
:1010C0000F011160116840F6044341F00301116003
:1010D0001168C4F2010311601168002421F0F001CD
:1010E00011601168DFF8D88041F03001116011689B
:1010F000DFF8D0A01160116882B021F47061116036
:101100001168254641F44071116011680227116091
:101110001A68A14622F470621A601A68012642F425
:1011200040721A601A681A601A6822F470421A60D3
:101130001A6842F440521A601A681A601A6822F457
:1011400070221A601A6842F440321A601A681A60F3
:101150001A6822F470021A601A6842F440121A6087
:101160001A681A601A6822F070621A601A6842F0EF
:1011700040721A601A681A6028460135C047EDB2FD
:1011800004EB0A035F7083F80290A3F8049004F85C
:101190000A600634042DEFD10023062000930121BC
:1011A0000222044B044CA0470620044B984702B08F
:1011B000BDE8F087C91100087D0E00089D0E0008EB
:1011C0003D100008900700202DE9F04F274E002425
:1011D000B6F800B0DFF898A00BEB8B077F0083B068
:1011E000BFB22546A04604EB0A018946BBF1000FB9
:1011F00023D189882846002930D099F80110022986
:101200002CD040F67D73C0F600039847012389F87F
:1012100002300135EDB20634042DE4D10BF1010C9E
:101220001FFA8CFCBCF1090FA6F800C002D90F4BC5
:1012300000221A8003B0BDE8F08F8B88BB42E8D251
:101240008B78012BE5D141F23D0301912846C0F690
:1012500000039847019981F80280DAE741F23D03E3
:10126000C0F60003984789F80280D2E7B402002054
:101270009007002064281DDC6FF063039842B8BF1C
:101280001846642919DC6FF063039942B8BF194608
:10129000002815DD1E4B80B20022188298805A73F8
:1012A0005A70002913DD89B20022D9825981DA747B
:1012B000DA71704764206429E5DD64210028E9DCE7
:1012C00014D1134B022200295A735A70EBDC03D15C
:1012D0000222DA74DA717047494289B2642914D85B
:1012E000D98201225981DA74DA717047404280B2A2
:1012F000642806D8064B1882012298805A735A70C7
:10130000CFE7034B64201882F6E76421D982E8E72F
:101310009007002038B5154B1A78012A00D038BD47
:10132000134C206800B34028124A14D8136885B2C1
:101330001818106000229BB222600F48C021C0180C
:101340002A460E4B9847012029460D4B984701200D
:101350000C4B984738BD1368403803F140012060BA
:101360009BB211604025E8E7187038BDD802002014
:10137000E4020020E00200201008002009270008F5
:10138000492900080D28000810B540F2A874C2F2DF
:10139000000442F6092321460320C0F600039847C3
:1013A00041F63143C1B2C0F600032046984742F6E9
:1013B00031030320C0F60003984710BD08B5084B61
:1013C0001B68052B00D008BD064B1A68511C052A66
:1013D0001960F8D100221A60034B9847F3E700BF69
:1013E000CC020020B80200205D1C000845F64442F3
:1013F000C4F20002136870B56B4C9BB26B4D238036
:1014000021882B8888B0194001F4007189B2002925
:1014100068D1228802F4004213425FD1228802F48C
:10142000806213424ED1228802F4005213421FBF41
:1014300045F64442C4F200024DF6FF711160228865
:1014400002F48052134231D1228802F40062134226
:101450000ED0574B1B78002B25D10220554B9847B7
:1014600045F64442C4F200024FF2FF712B8811602E
:10147000228802F48072134213D045F644424FF69C
:10148000FF61C4F2000245F648431160C4F2000354
:101490001B68190432D4484B00221A600720454BC0
:1014A000984708B070BD454B9847D9E745F6444387
:1014B000C4F200034EF6FF721A6000203D4B9847BD
:1014C0002B88C1E745F64443C4F200034FF6FF32D0
:1014D0001A603B4B5B6898472B88A4E7394B9847C9
:1014E0002B889BE7384B4FF6FF5111601A78013279
:1014F000D2B21A70354B98472B888AE72E490B6871
:1015000001330B600B68032BC8D945F64042C4F287
:101510000002136813F00803C0D110682C4D80B28C
:101520004FF4B8422860C4F2000252F8044B08AEEF
:1015300006EB83000133A4B2082B40F8204CF4D111
:101540002A6845F6404342F001022A602A68C4F244
:10155000000392B21A602A6845F6444022F0010264
:101560002A602A68C4F2000092B21A60026845F646
:1015700044435205C4F20003F8D54FF4B8424FF685
:10158000FF301860C4F20002002308AC04EB8300B3
:1015900050F8200C013380B2082B42F8040BF4D130
:1015A00000230B607AE700BFE8070020441000200A
:1015B000D0020020E9190008C4020020B918000870
:1015C0005C000020412A0008C0020020BD13000872
:1015D000BC020020034B9B7A13B1034B05221A6017
:1015E000704700BF20100020CC02002040F2CC2326
:1015F000C2F2000304221A60704700BF034B1A783E
:10160000202A01D100221A70704700BFC8020020B2
:10161000704700BF212810B5034603D0202811D001
:10162000022010BD0F4A13681B7803F07F03212BA3
:10163000F6D10D4913680024204699615C828847E1
:10164000204610BD074A1168097801F07F01212961
:1016500003D0064A0220137010BD044804490370E9
:10166000E8E700BF40100020A9160008C8020020CB
:10167000C1160008074B1B681B7803F07F03212B62
:1016800001D002207047022801D02228F9D1002081
:10169000704700BF4010002009B1022070470128A8
:1016A000FBD80846704700BF08B103487047034B9A
:1016B00008221B681A827047D800002040100020C2
:1016C00008B103487047034B08221B681A82704711
:1016D000D80000204010002008B5064B1B68DB78BE
:1016E000042B05D8044901EBC301044B984708BDFE
:1016F000002008BD40100020B80000201D21000877
:1017000008B540F2540142F21D13C2F20001C0F6C6
:101710000003984708BD00BF08B540F2B00142F28F
:101720001D13C2F20001C0F60003984708BD00BFB8
:1017300041F2400242F68443C0F60003C2F20002C6
:101740001268D9792DE9F04742F261730024517291
:101750009472D472C0F60003204642F27576984720
:10176000C0F6000620464FF4007142F28D75B04776
:10177000C0F600051021204642F6E10AA847C0F64F
:10178000000A4021204642F6BD08D047C0F60008B6
:1017900080212046C04742F655032046C0F600038C
:1017A000984740F25C03C2F2000342F6691993F8CD
:1017B0002C10C0F600092046C84742F63103C0F697
:1017C00000032046984701202146B0470120C02150
:1017D000C04742F2CD7701202021A847C0F600077C
:1017E00001202146B84702204FF4C061B0470220D3
:1017F0004FF48071C04702202146B84702202021C3
:10180000A84703202146B04703204FF48871D047F2
:1018100003204021C84703204FF44051B8472146D8
:101820000320A84742F21163C0F600032046984700
:1018300040F2CC23C2F2000301221A60BDE8F08717
:1018400041F6015310B5C0F60003984741F240033A
:10185000C2F200031A68002441F67D039472C0F6B8
:101860000003984742F6DD13C0F60003984740F2A4
:10187000CC23C2F200031C6010BD00BF38B541F696
:1018800015430120C0F60003984745F6444545F648
:10189000404341F24402C4F2000300214FF4E054FB
:1018A0000120C4F20005C2F2000218601960084667
:1018B000296014801C6038BD70B5002382B045F6E5
:1018C0004041C4F2000101934FF4B8420D683A4917
:1018D000C4F2000252F8040B80B241F82300013335
:1018E000082BF7D1AAB24FF6FE7442F4806245F697
:1018F00040432C40C4F2000342F0010644F48065EA
:1019000045F644401A60C4F200001E601D60026883
:1019100045F644435205C4F20003F8D54FF4B842EB
:101920004FF6FF301860C4F20002002351F8230084
:10193000013380B2082B42F8040BF7D145F640433F
:10194000C4F2000344F481641C6019684FF4E0425F
:1019500089B241F004011960C4F2000211684EF628
:10196000105401911168CEF2000421F0030141F0FE
:1019700001011160206845F6444140F004002060F8
:10198000C4F200010868C0040FD54EF6FF7008606D
:1019900018684FF6F77101401960019B13602368C6
:1019A00023F00403236002B070BD044B9847236802
:1019B00023F004032360F6E7F0070020451D00082C
:1019C00010B545F64044C4F2000423684FF6FB729C
:1019D0001A4041F64533C0F60003226098474FF4A1
:1019E0003F43236010BD00BF10B52B4C072818BF24
:1019F00020702378052B19D8DFE803F01B222A2F4B
:101A00003A036378013BDBB26370637883B945F6D0
:101A10004042C4F2000210684FF6EF7101401160BD
:101A20001D4A062111701D4A136010BD0623237044
:101A300010BD1A4B1B68002B28D00523237010BD46
:101A4000174B984704232370144B01221A6010BDD2
:101A5000022363700323237010BD6378013BDBB264
:101A600063706378002BE3D10B4B04221A7010BD16
:101A700045F64043C4F200031A6892B242F01002E5
:101A80001A60052323700A23637010BD044B984726
:101A90000623237010BD00BFEC070020D4020020F5
:101AA000C119000840F21443C4F201034FF480222C
:101AB0001A60704730B4CAB1551EEDB2013500232B
:101AC0006D001C4607E03032CA54CA1802330001C8
:101AD000AB4254700AD0020F092AF4D93732CA54E3
:101AE000CA1802330001AB425470F4D130BC7047C5
:101AF00008B541F2ED33C0F60003984708BD00BFBA
:101B000041F20403C4F201031A6822F470021A605D
:101B10001A6842F400121A601A681A60704700BF0F
:101B200041F20402C4F20202116841F21C0321F4E2
:101B300080011160C4F202031A6842F400021A60C4
:101B4000704700BF054B9B7A1BB9054B01221A60F9
:101B50007047034B05221A60704700BF2010002019
:101B6000CC02002040F2144238B5C4F201024FF416
:101B700080214FF480631160C4F20103196840F2C0
:101B8000044221F480211960C4F2010210684FF46C
:101B9000816120F480201060C4F20101086840F2E5
:101BA0000C4240F480200860C4F20102116840F643
:101BB000595421F4802111601D6841F6F12145F44A
:101BC00080259020C0F600010022C0F600041D60B0
:101BD000A0474FF46143CEF200031A6841F6A521F5
:101BE00042F480121A60C0F600010022E820A047EB
:101BF0004EF20412CEF2000211684FF4826341F4F7
:101C000080611160C4F201031A6842F480221A60F4
:101C100038BD00BF41F20C03C4F201031A6818B9C1
:101C200042F400521A60704722F400521A60704762
:101C3000F0B50D4683B0064659B1074F0024335D19
:101C400005200DF1070101348DF80730B847AC428B
:101C5000F5D303B0F0BD00BF810C000870B5204C77
:101C60002378012B26D01F4D2B68B3F5006F22D0AF
:101C70001D4A11688B422FD098BF98B221D9C3F565
:101C800000611A4A4029116098B21FD94033403987
:101C90002B6011604026164B012518183246C021D2
:101CA000144B257098472846134B314698472846D1
:101CB000124B984770BD0C4B0020196828600346F2
:101CC00051B1C91A094A40291160DFD8CB182B60DD
:101CD00000238EB21360DEE70023237070BD00BFC7
:101CE000D8020020E0020020DC020020E4020020F4
:101CF0001008002009270008492900080D280008BD
:101D000038B54FF2E8724FF2F073C1F6FF72C1F6C8
:101D1000FF7312681B684FF2EC71C1F6FF71D018A7
:101D20000C6807D004490822044DA84720460449FE
:101D30000422A84738BD00BF02000020B51A0008E1
:101D40001200002030BF704708B538B1064B1B6841
:101D50001B689847054B18680A3008BD034B0122E1
:101D60001B681A8208BD00BF3C10002040100020F4
:101D700008B538B1064B1B689B689847054B186837
:101D80000C3008BD034B01221B681A8208BD00BF3E
:101D90003C1000204010002008B5002837D0214B0F
:101DA000214800211A680180137813F07F0317D0AF
:101DB000012B2BD0022B28D1537903F00F02920074
:101DC00002F1804202F5B84213F0800F136823D16C
:101DD00003F44053B3F5805F11D1012303700EE08B
:101DE000527A02F02003DBB202F040028B42D2B200
:101DF00018BF0223002AF1D043F0010303700B4BFC
:101E00001B681B699847084808BD084608BD054B74
:101E100002221B681A8208BD03F03003102BEED19A
:101E2000DBE700BF40100020101000203C10002015
:101E30002DE9F8432B4E3468238A207A002B08BF03
:101E4000042814BF4FF000084FF001080AD1264BB8
:101E50001A78012A30D0254B102207271A802772C2
:101E6000BDE8F883A78AA2699F4234BF3D461D465C
:101E70002846BB428CBF0227042790471C4B814653
:101E8000404698472A4601461A4B484698472946F5
:101E9000194B40469847238A628A5B1B2382134B67
:101EA000AD1830221A806582144B34684FF44052CA
:101EB0001A802772BDE8F88345F65042C4F200024A
:101EC000116843F2020289B2C2F200028A1852007B
:101ED00000211160054A04273020108019702772F4
:101EE000BDE8F88340100020E802002048100020E0
:101EF0000929000809270008492900084610002080
:101F000010B50B4B0B4A1B685178DA78914201D21D
:101F1000022010BD99780029FAD19C88002CF7D1B5
:101F20009A72054B1B685B689847204610BD00BF3E
:101F300040100020E00000203C10002038B5104A7E
:101F4000104C1268236892695879D97890472368B1
:101F50009A7A0AB9022038BD0028FBD11A79002AE2
:101F6000F8D19D78002DF5D1074B1B68DB689847A9
:101F7000236828465979DA78D9721A7338BD00BFB8
:101F800018100020401000203C10002038B5354BC0
:101F90001B68187810F07F0003D0022806D00220BA
:101FA00038BD5A7A22F020025A7238BD5A88002A67
:101FB000F6D11A79002AF3D15A7922F080008100F3
:101FC00001F18044150604F5B84456BF246825681D
:101FD00004F44055244C48BF05F030052478A04255
:101FE000DDD2002DDBD09B7A002BD8D002F080030D
:101FF000DBB273B101F1804303F5B8431B6803F012
:102000003003102B21D0194B1B685B6998470020C7
:1020100038BD01F1804101F5B844236803F4405311
:10202000B3F5805FEFD1C8B9114B93F82C10114B69
:10203000984722684BF68F73134083F4405343F460
:10204000004343F080032360DDE7C4B220460A4B1F
:10205000984720463021094B9847D4E7084B9847CA
:10206000E7E700BF40100020E00000203C10002007
:102070005C00002069290008992800088D270008C5
:102080007528000838B5224B19684B7923F0800277
:10209000900000F180441D0604F5B84456BF246842
:1020A000256804F440551B4C48BF05F030052478E2
:1020B000A24201D3022038BD4A88002AFAD1002D5D
:1020C000F8D08A7A002AF5D003F0800300F180422C
:1020D00002F5B842DBB211687BB148F6BF730B4022
:1020E00083F0100343F4004343F0800313600A4B72
:1020F0001B689B699847002038BD4BF68F730B40D7
:1021000083F4805343F4004343F080031360EEE70D
:1021100040100020E00000203C100020054B1B6810
:102120005A8A10B108688018704789888A1A1A82FA
:10213000704700BF4010002008B50C4B002093F8FA
:102140002C100B4B98470B4B1B68187A082806D1AC
:10215000094B4FF480521A80084B10221A80B0F1BC
:10216000090CDCF1000050EB0C0008BD5C00002005
:102170006929000840100020461000204810002067
:102180002DE9F041354D2C68237A022B18BF042B22
:1021900014BF0026012605D0032B18BF052B07D03E
:1021A000072B0ED0082323722D4B9847BDE8F081F2
:1021B000A169238A11B35BB9A38A002B49D0294AAC
:1021C0002EE0294B1B68DB6898472C680823EAE758
:1021D000A78A9F4228BF1F4638468847228A638ABB
:1021E000D21BFB1880462282638230461F4B9847E1
:1021F0001F4B01463A4640469847238A002BDBD0C6
:102200001C4B00204FF4405201461A801A4B98474D
:10221000238AA18A134A30209942108019D9A3B980
:102220002C68062145F650432172C4F20003196858
:1022300043F2020389B2C2F20003CB185B00002113
:10224000196030231380237AADE72C6805232372AD
:10225000A9E72C6803232372A5E700BF40100020E4
:1022600039210008481000201810002029290008F2
:102270003D2700084610002049290008F0B545F622
:102280005043C4F200039D4D1A682C6843F20403C6
:1022900092B2C2F20003D318227A5B00092A83B0FB
:1022A0001E6844D0B6B2760006F1804606F5C046F8
:1022B0003378934F237073786370B088B847608029
:1022C00030892C68B847A080B3892C680122E3804C
:1022D0002272002B30D06178062900F08780002917
:1022E0005ED16388002B00F09480864E33680846E8
:1022F0001B69984703282B6862D01A8A4FF6FF7132
:102300008A425DD002280CD05AB193F900100029FE
:10231000C0F2B58003221A727B4B4FF440521A80F0
:1023200001E008221A72794B984703B0F0BDE388A8
:1023300001222272002BCED12378667813F07F031E
:1023400041D1092E00F00881052E00F0BF80032E38
:1023500000F0F080012E3BD1E378012B38D1A38827
:10236000002B35D1637A03F02003DBB2002B2FD092
:10237000674B984760BB2C6845F65043C4F2000396
:102380001A6843F2020392B2C2F20003D3185B0050
:1023900000221A605F4A0623302111802372C2E7AF
:1023A000082948D123785B069FD15B4B0020A361AD
:1023B000608298472B684FF6FF711A8A8A42A3D130
:1023C00009221A72AFE7012B71D0022B00F08D8029
:1023D0004C4B30461B685B699847032800F0C5806A
:1023E0002C680028C8D0082323729CE723785B065A
:1023F0007FF47BAFA378434E012B00F0B080022B1B
:102400005ED0032B7FF472AF33685B6A002BCDD1B3
:102410006CE7636823F47F43B3F5003F7FF465AF57
:10242000237813F07F0340F0A480A388002B7FF46F
:102430005CAF3A4BBAE70A297FF457AF237803F031
:102440007F03012B7FF451AFA37A002B3FF44DAFF4
:102450006388002B7FF449AF62682A4E22F47F42E2
:10246000B2F5803F7FF442AF3268194660799369D4
:102470009847002840F0BE802C68294B96E7D98801
:1024800001910198824217D88A421E4E08D23168C3
:1024900091F82C108A4280F09580224A0021117018
:1024A000326892F82C209A821F4B98473BE70B2EFC
:1024B0008ED11E4B98475DE7019A124E1A82EFE7C4
:1024C00033681B6A002B7FF471AF0FE794F9033078
:1024D000002B88DBA378002B85D1A388002B82D129
:1024E000A37A002B3FF448AF7DE7012E3FF440AFC5
:1024F000032E7FF46DAF0E4B98473BE74010002052
:10250000D1290008181000204610002039210008A9
:102510008D1F000848100020491D0008991D000863
:10252000711D0008E8020020311E00083D1F000850
:1025300085200008E378012B7FF44AAFA388002BA5
:102540007FF446AF627A2D4B42F020021B68627224
:10255000DB6998472C680FE7294B98470AE73368EF
:10256000DB69002B7FF422AFC0E62C6809232372BD
:10257000D9E6012B31D0022B7FF4B7AE637903F09B
:102580000F02900000F180401E0600F5B84056BFD3
:102590000068066800F440561A4848BF06F0300646
:1025A00000788242BFF4A1AE13F0700F14BF002375
:1025B0000123002E0CBF002603F00106002E7FF43D
:1025C00038AF92E692FBF1F001FB1022002A7FF473
:1025D00067AF0D4A0121117062E70C4E60793368D4
:1025E0009B69984730B92C68A37A002B7FF421AF00
:1025F00061787BE62B68597878E600BF3C100020B4
:10260000011F0008E0000020E80200201810002050
:1026100070B40F4B1E7896B14FF4B844C4F2000466
:102620000023256843F4004140F60F7241F0800119
:102630002A4001330A439E4244F8042BF1D845F660
:102640004C4340F08000C4F20003186070BC704737
:10265000E000002010B5144C23681A7A022A18BF33
:10266000042A10D0062A04D008221A720F4B984769
:1026700010BD5A78052A0BD00D4B1B689B689847F4
:1026800023680822F1E70B4B984723681A7AECE796
:102690001A785206F0D1D878074B9847074B1B6839
:1026A0001B6A9847E8E700BF401000203921000866
:1026B00018100020311E0008112600083C100020D0
:1026C000704700BF10B541F2200241F24004C2F24F
:1026D0000002C2F2000422600224147241F21800C7
:1026E00040F25C0341F23C0140F28C02C2F2000372
:1026F000C2F20000C2F20001C2F2000203600A60EE
:102700001B68984710BD00BF01F1005101F5405111
:1027100001324900531010B40DD00A1D023010F8D8
:10272000014C10F8021C023041EA042122F8041C7A
:102730000432013BF3D110BC704700BF01F10051DE
:1027400001F5405101324900531008D002300A1FF0
:1027500052F8041F20F8021C0230013BF8D17047E8
:102760004FF6F87345F650420340C4F2000213607E
:10277000704700BF800000F1804202F5B842106847
:1027800048F68F130340194311607047800000F131
:10279000804202F5B84210B401F01000146848F607
:1027A000BF7380B2234068B99BB201F0200189B2A7
:1027B00009B183F0200343F4004343F08003136026
:1027C00010BC704783F01003EFE700BF800000F1FA
:1027D000804202F5B84210B401F4805014684BF600
:1027E0008F7380B2234068B99BB201F4005189B263
:1027F00009B183F4005343F4004343F080031360B2
:1028000010BC704783F48053EFE700BF800000F1F5
:10281000804202F5B842116848F6BF730B4083F05E
:10282000300343F4004343F080031360704700BF5C
:10283000800000F1804202F5B84211684BF68F73B8
:102840000B4083F4405343F4004343F08003136090
:10285000704700BF800000F1804202F5B842116865
:1028600040F60F630B4043F4004343F080031360D2
:10287000704700BF800000F1804303F5B8431A6839
:10288000510408D5196840F60F720A4042F44042DC
:1028900042F080021A607047800000F1804303F527
:1028A000B8431A68500608D5196840F60F720A40F6
:1028B00042F4004242F0C0021A60704745F65043AD
:1028C000C4F200031A684FF6FE7392B202EBC00026
:1028D00000F1005202F5405252000B401360704765
:1028E00045F65043C4F200031A6843F2040392B25F
:1028F00002EBC000C2F20003C3184FF6FE725B0089
:102900000A401A60704700BF45F65043C4F2000306
:102910001B689BB203EBC00000F1005303F540536A
:102920005B001888704700BF45F65043C4F20003AF
:102930001A6843F2040392B202EBC000C2F2000331
:10294000C3185B001888704745F65043C4F2000373
:102950001A6843F2020392B202EBC000C2F2000313
:10296000C3185B001960704745F65043C4F200037A
:102970001A6843F2060392B202EBC000C2F20003EF
:10298000C3185B003E2909D94A09C90601D1013A99
:1029900092B2920242F400421A6070474A08C80795
:1029A00048BF013292021A60704700BF45F650439B
:1029B000C4F200031A6843F2060392B202EBC000AD
:1029C000C2F20003C3185B0018688005800D7047D1
:1029D000C3B2000A40EA0320704700BF10B441F2BE
:1029E000440345F6444445F640424FF43F4100203D
:1029F000C4F20004C2F20003C4F200022060198095
:102A0000116010BC704700BF70B542F6AD1300F006
:102A10007F052846C0F600030E46984742F6291364
:102A20000446C0F600032846984742F23D7301462B
:102A300022463046C0F600039847204670BD00BFCE
:102A40002DE9F04FDFF8ACA183B045F6444B0023ED
:102A5000DFF8A491624DADF80630C4F2000BD04609
:102A6000DBF800304FF4B8449AB21B04AAF80020F7
:102A700040F1AB80B8F80020C4F2000402F00F026D
:102A8000900000F18040574E4BF6BF71544F1346F3
:102A900000F5B84089F80020002A33D123689BB2A2
:102AA0002B802B8803F0300333802B8803F44053B2
:102AB0002B802368194081F4005181F0200141F4FA
:102AC000004141F080012160B8F8003003F01003AC
:102AD0009BB2002B49D023689BB2ADF80630BDF8FD
:102AE000063003F400639BB2002B71D1BDF80630B1
:102AF0001BB2002BB4DA226840F68F7313402360B8
:102B0000394B38E0026892B2ADF80620BDF80620D5
:102B100012B2002A1BDBBDF8063003F080039BB223
:102B2000002B9DD099F8001048F60F738A0002F12F
:102B3000804202F5B842106801390340136040F248
:102B40001C02C2F2000252F82130984788E701685F
:102B500040F68F720A40026040F23802013BC2F236
:102B6000000252F823309847D5E7226848F60F73E1
:102B7000134023601D4B984721683A884BF6BF737A
:102B800002F4805292B20B400AB183F480533A8827
:102B900002F4005292B20AB183F40053328802F078
:102BA000100292B20AB183F01003328802F02002C0
:102BB00092B20AB183F0200343F400434FF4B842C9
:102BC00043F08003C4F20002136003B0BDE8F08F4D
:102BD000226840F68F7313402360054BCBE700BF9C
:102BE00046100020481000208121000855260008CA
:102BF0007D220008E80700201C10002050776D207F
:102C000025640A00657A4578706C6F7265720A00F7
:102C10002603530054004D006900630072006F00EA
:102C200065006C0065006300740072006F006E0048
:102C300069006300730000001201000202000040FE
:102C40008304405700020102030100000403090449
:102C50003203530054004D00330032002000560070
:102C6000690072007400750061006C002000430070
:102C70004F004D00200050006F00720074002000D3
:102C80002000000009024300020100C032090400D4
:102C900000010202010005240010010524010001C9
:102CA000042402020524060001070582030800FF30
:102CB00009040100020A00000007050302400000A9
:082CC00007058102400000003D
:102CC8001A03530054004D00330032000000000086
:102CD80000000000000000000000000015130008BC
:102CE800C1260008C1260008C1260008C126000820
:102CF800C1260008C1260008C1260008C126000810
:102D080089130008C1260008C1260008C12600084A
:102D1800C1260008842C0008430000004118000860
:102D280031170008FD1500081116000815160008CF
:102D380075160008991600081917000801170008E9
:102D4800D91600080000000040000000C126000855
:102D5800D5150008C1260008C1260008C1260008AC
:102D6800C1260008C1260008C1260008ED15000884
:102D7800382C0008120000004C2C00080400000049
:102D8800102C000826000000502C0008320000001B
:102D9800000000201A00000000C201000000080026
:042DA8000401000022
:040000050800071DCB
:00000001FF
